{
  "_format": "hh-sol-artifact-1",
  "contractName": "Voting",
  "sourceName": "contracts/Voting.sol",
  "abi": [
    {
      "anonymous": false,
      "inputs": [
        {
          "indexed": false,
          "internalType": "uint256",
          "name": "pollId",
          "type": "uint256"
        },
        {
          "indexed": false,
          "internalType": "string",
          "name": "question",
          "type": "string"
        },
        {
          "indexed": false,
          "internalType": "string[]",
          "name": "options",
          "type": "string[]"
        },
        {
          "indexed": false,
          "internalType": "uint256",
          "name": "deadline",
          "type": "uint256"
        },
        {
          "indexed": false,
          "internalType": "address",
          "name": "owner",
          "type": "address"
        }
      ],
      "name": "PollCreated",
      "type": "event"
    },
    {
      "anonymous": false,
      "inputs": [
        {
          "indexed": false,
          "internalType": "uint256",
          "name": "pollId",
          "type": "uint256"
        },
        {
          "indexed": false,
          "internalType": "address",
          "name": "voter",
          "type": "address"
        },
        {
          "indexed": false,
          "internalType": "uint256",
          "name": "optionIndex",
          "type": "uint256"
        }
      ],
      "name": "Voted",
      "type": "event"
    },
    {
      "inputs": [
        {
          "internalType": "string",
          "name": "q",
          "type": "string"
        },
        {
          "internalType": "string[]",
          "name": "opts",
          "type": "string[]"
        },
        {
          "internalType": "uint256",
          "name": "dur",
          "type": "uint256"
        }
      ],
      "name": "createPoll",
      "outputs": [],
      "stateMutability": "nonpayable",
      "type": "function"
    },
    {
      "inputs": [
        {
          "internalType": "uint256",
          "name": "id",
          "type": "uint256"
        }
      ],
      "name": "getPollDetails",
      "outputs": [
        {
          "internalType": "string",
          "name": "question",
          "type": "string"
        },
        {
          "internalType": "string[]",
          "name": "options",
          "type": "string[]"
        },
        {
          "internalType": "uint256",
          "name": "deadline",
          "type": "uint256"
        },
        {
          "internalType": "address",
          "name": "owner",
          "type": "address"
        }
      ],
      "stateMutability": "view",
      "type": "function"
    },
    {
      "inputs": [
        {
          "internalType": "uint256",
          "name": "id",
          "type": "uint256"
        }
      ],
      "name": "getResults",
      "outputs": [
        {
          "internalType": "uint256[]",
          "name": "",
          "type": "uint256[]"
        }
      ],
      "stateMutability": "view",
      "type": "function"
    },
    {
      "inputs": [],
      "name": "pollCount",
      "outputs": [
        {
          "internalType": "uint256",
          "name": "",
          "type": "uint256"
        }
      ],
      "stateMutability": "view",
      "type": "function"
    },
    {
      "inputs": [
        {
          "internalType": "uint256",
          "name": "",
          "type": "uint256"
        }
      ],
      "name": "polls",
      "outputs": [
        {
          "internalType": "string",
          "name": "question",
          "type": "string"
        },
        {
          "internalType": "uint256",
          "name": "deadline",
          "type": "uint256"
        },
        {
          "internalType": "address",
          "name": "owner",
          "type": "address"
        }
      ],
      "stateMutability": "view",
      "type": "function"
    },
    {
      "inputs": [
        {
          "internalType": "uint256",
          "name": "id",
          "type": "uint256"
        },
        {
          "internalType": "uint256",
          "name": "opt",
          "type": "uint256"
        }
      ],
      "name": "vote",
      "outputs": [],
      "stateMutability": "nonpayable",
      "type": "function"
    },
    {
      "inputs": [
        {
          "internalType": "uint256",
          "name": "",
          "type": "uint256"
        },
        {
          "internalType": "address",
          "name": "",
          "type": "address"
        }
      ],
      "name": "voted",
      "outputs": [
        {
          "internalType": "bool",
          "name": "",
          "type": "bool"
        }
      ],
      "stateMutability": "view",
      "type": "function"
    }
  ],
  "bytecode": "0x6080604052348015600f57600080fd5b50611c3a8061001f6000396000f3fe608060405234801561001057600080fd5b506004361061007d5760003560e01c80639a0040e41161005b5780639a0040e414610100578063ac2f007414610133578063b384abef14610165578063f8c860f4146101815761007d565b80635277b4ae1461008257806381a60c0d146100b25780639207891d146100e2575b600080fd5b61009c60048036038101906100979190610c22565b61019d565b6040516100a99190610c7d565b60405180910390f35b6100cc60048036038101906100c79190610c98565b6101cc565b6040516100d99190610d83565b60405180910390f35b6100ea61027e565b6040516100f79190610db4565b60405180910390f35b61011a60048036038101906101159190610c98565b610284565b60405161012a9493929190610f7a565b60405180910390f35b61014d60048036038101906101489190610c98565b610486565b60405161015c93929190610fcd565b60405180910390f35b61017f600480360381019061017a919061100b565b610558565b005b61019b60048036038101906101969190611106565b6107bf565b005b60026020528160005260406000206020528060005260406000206000915091509054906101000a900460ff1681565b60606000548210610212576040517f08c379a0000000000000000000000000000000000000000000000000000000008152600401610209906111e7565b60405180910390fd5b6001600083815260200190815260200160002060020180548060200260200160405190810160405280929190818152602001828054801561027257602002820191906000526020600020905b81548152602001906001019080831161025e575b50505050509050919050565b60005481565b60608060008060005485106102ce576040517f08c379a00000000000000000000000000000000000000000000000000000000081526004016102c5906111e7565b60405180910390fd5b6000600160008781526020019081526020016000209050806000018160010182600301548360040160009054906101000a900473ffffffffffffffffffffffffffffffffffffffff1683805461032390611236565b80601f016020809104026020016040519081016040528092919081815260200182805461034f90611236565b801561039c5780601f106103715761010080835404028352916020019161039c565b820191906000526020600020905b81548152906001019060200180831161037f57829003601f168201915b5050505050935082805480602002602001604051908101604052809291908181526020016000905b828210156104705783829060005260206000200180546103e390611236565b80601f016020809104026020016040519081016040528092919081815260200182805461040f90611236565b801561045c5780601f106104315761010080835404028352916020019161045c565b820191906000526020600020905b81548152906001019060200180831161043f57829003601f168201915b5050505050815260200190600101906103c4565b5050505092509450945094509450509193509193565b60016020528060005260406000206000915090508060000180546104a990611236565b80601f01602080910402602001604051908101604052809291908181526020018280546104d590611236565b80156105225780601f106104f757610100808354040283529160200191610522565b820191906000526020600020905b81548152906001019060200180831161050557829003601f168201915b5050505050908060030154908060040160009054906101000a900473ffffffffffffffffffffffffffffffffffffffff16905083565b600060016000848152602001908152602001600020905060005483106105b3576040517f08c379a00000000000000000000000000000000000000000000000000000000081526004016105aa906111e7565b60405180910390fd5b806003015442106105f9576040517f08c379a00000000000000000000000000000000000000000000000000000000081526004016105f0906112b3565b60405180910390fd5b6002600084815260200190815260200160002060003373ffffffffffffffffffffffffffffffffffffffff1673ffffffffffffffffffffffffffffffffffffffff16815260200190815260200160002060009054906101000a900460ff1615610697576040517f08c379a000000000000000000000000000000000000000000000000000000000815260040161068e90611345565b60405180910390fd5b806001018054905082106106e0576040517f08c379a00000000000000000000000000000000000000000000000000000000081526004016106d7906113b1565b60405180910390fd5b60016002600085815260200190815260200160002060003373ffffffffffffffffffffffffffffffffffffffff1673ffffffffffffffffffffffffffffffffffffffff16815260200190815260200160002060006101000a81548160ff02191690831515021790555080600201828154811061075f5761075e6113d1565b5b90600052602060002001600081548092919061077a9061142f565b91905055507f1abe610cf2bf87e57dcc1181fcf5ac0934e843d8344ab9eed6e86c799f62585e8333846040516107b293929190611477565b60405180910390a1505050565b6002838390501015610806576040517f08c379a00000000000000000000000000000000000000000000000000000000081526004016107fd906114fa565b60405180910390fd5b60008111610849576040517f08c379a000000000000000000000000000000000000000000000000000000000815260040161084090611566565b60405180910390fd5b60008383905067ffffffffffffffff81111561086857610867611586565b5b6040519080825280602002602001820160405280156108965781602001602082028036833780820191505090505b509050600082426108a791906115b5565b90506040518060a0016040528088888080601f016020809104026020016040519081016040528093929190818152602001838380828437600081840152601f19601f82011690508083019250505050505050815260200186869061090b919061179d565b81526020018381526020018281526020013373ffffffffffffffffffffffffffffffffffffffff168152506001600080548152602001908152602001600020600082015181600001908161095f919061195e565b50602082015181600101908051906020019061097c929190610a53565b506040820151816002019080519060200190610999929190610aac565b506060820151816003015560808201518160040160006101000a81548173ffffffffffffffffffffffffffffffffffffffff021916908373ffffffffffffffffffffffffffffffffffffffff1602179055509050507f39490fa2ff1be151cf0adeee19923c114204217b73913ddd026cd8d7883dab84600054888888888633604051610a2b9796959493929190611b9f565b60405180910390a1600080815480929190610a459061142f565b919050555050505050505050565b828054828255906000526020600020908101928215610a9b579160200282015b82811115610a9a578251829081610a8a919061195e565b5091602001919060010190610a73565b5b509050610aa89190610af9565b5090565b828054828255906000526020600020908101928215610ae8579160200282015b82811115610ae7578251825591602001919060010190610acc565b5b509050610af59190610b1d565b5090565b5b80821115610b195760008181610b109190610b3a565b50600101610afa565b5090565b5b80821115610b36576000816000905550600101610b1e565b5090565b508054610b4690611236565b6000825580601f10610b585750610b77565b601f016020900490600052602060002090810190610b769190610b1d565b5b50565b6000604051905090565b600080fd5b600080fd5b6000819050919050565b610ba181610b8e565b8114610bac57600080fd5b50565b600081359050610bbe81610b98565b92915050565b600073ffffffffffffffffffffffffffffffffffffffff82169050919050565b6000610bef82610bc4565b9050919050565b610bff81610be4565b8114610c0a57600080fd5b50565b600081359050610c1c81610bf6565b92915050565b60008060408385031215610c3957610c38610b84565b5b6000610c4785828601610baf565b9250506020610c5885828601610c0d565b9150509250929050565b60008115159050919050565b610c7781610c62565b82525050565b6000602082019050610c926000830184610c6e565b92915050565b600060208284031215610cae57610cad610b84565b5b6000610cbc84828501610baf565b91505092915050565b600081519050919050565b600082825260208201905092915050565b6000819050602082019050919050565b610cfa81610b8e565b82525050565b6000610d0c8383610cf1565b60208301905092915050565b6000602082019050919050565b6000610d3082610cc5565b610d3a8185610cd0565b9350610d4583610ce1565b8060005b83811015610d76578151610d5d8882610d00565b9750610d6883610d18565b925050600181019050610d49565b5085935050505092915050565b60006020820190508181036000830152610d9d8184610d25565b905092915050565b610dae81610b8e565b82525050565b6000602082019050610dc96000830184610da5565b92915050565b600081519050919050565b600082825260208201905092915050565b60005b83811015610e09578082015181840152602081019050610dee565b60008484015250505050565b6000601f19601f8301169050919050565b6000610e3182610dcf565b610e3b8185610dda565b9350610e4b818560208601610deb565b610e5481610e15565b840191505092915050565b600081519050919050565b600082825260208201905092915050565b6000819050602082019050919050565b600082825260208201905092915050565b6000610ea782610dcf565b610eb18185610e8b565b9350610ec1818560208601610deb565b610eca81610e15565b840191505092915050565b6000610ee18383610e9c565b905092915050565b6000602082019050919050565b6000610f0182610e5f565b610f0b8185610e6a565b935083602082028501610f1d85610e7b565b8060005b85811015610f595784840389528151610f3a8582610ed5565b9450610f4583610ee9565b925060208a01995050600181019050610f21565b50829750879550505050505092915050565b610f7481610be4565b82525050565b60006080820190508181036000830152610f948187610e26565b90508181036020830152610fa88186610ef6565b9050610fb76040830185610da5565b610fc46060830184610f6b565b95945050505050565b60006060820190508181036000830152610fe78186610e26565b9050610ff66020830185610da5565b6110036040830184610f6b565b949350505050565b6000806040838503121561102257611021610b84565b5b600061103085828601610baf565b925050602061104185828601610baf565b9150509250929050565b600080fd5b600080fd5b600080fd5b60008083601f8401126110705761106f61104b565b5b8235905067ffffffffffffffff81111561108d5761108c611050565b5b6020830191508360018202830111156110a9576110a8611055565b5b9250929050565b60008083601f8401126110c6576110c561104b565b5b8235905067ffffffffffffffff8111156110e3576110e2611050565b5b6020830191508360208202830111156110ff576110fe611055565b5b9250929050565b60008060008060006060868803121561112257611121610b84565b5b600086013567ffffffffffffffff8111156111405761113f610b89565b5b61114c8882890161105a565b9550955050602086013567ffffffffffffffff81111561116f5761116e610b89565b5b61117b888289016110b0565b9350935050604061118e88828901610baf565b9150509295509295909350565b7f506f6c6c20646f6573206e6f7420657869737400000000000000000000000000600082015250565b60006111d1601383610dda565b91506111dc8261119b565b602082019050919050565b60006020820190508181036000830152611200816111c4565b9050919050565b7f4e487b7100000000000000000000000000000000000000000000000000000000600052602260045260246000fd5b6000600282049050600182168061124e57607f821691505b60208210810361126157611260611207565b5b50919050565b7f566f74696e6720666f72207468697320706f6c6c20697320636c6f7365640000600082015250565b600061129d601e83610dda565b91506112a882611267565b602082019050919050565b600060208201905081810360008301526112cc81611290565b9050919050565b7f596f75206861766520616c726561647920766f74656420696e2074686973207060008201527f6f6c6c0000000000000000000000000000000000000000000000000000000000602082015250565b600061132f602383610dda565b915061133a826112d3565b604082019050919050565b6000602082019050818103600083015261135e81611322565b9050919050565b7f496e76616c6964206f7074696f6e20696e646578000000000000000000000000600082015250565b600061139b601483610dda565b91506113a682611365565b602082019050919050565b600060208201905081810360008301526113ca8161138e565b9050919050565b7f4e487b7100000000000000000000000000000000000000000000000000000000600052603260045260246000fd5b7f4e487b7100000000000000000000000000000000000000000000000000000000600052601160045260246000fd5b600061143a82610b8e565b91507fffffffffffffffffffffffffffffffffffffffffffffffffffffffffffffffff820361146c5761146b611400565b5b600182019050919050565b600060608201905061148c6000830186610da5565b6114996020830185610f6b565b6114a66040830184610da5565b949350505050565b7f6d696e2032206f7074696f6e7300000000000000000000000000000000000000600082015250565b60006114e4600d83610dda565b91506114ef826114ae565b602082019050919050565b60006020820190508181036000830152611513816114d7565b9050919050565b7f6475726174696f6e206d75737420626520706f73697469766500000000000000600082015250565b6000611550601983610dda565b915061155b8261151a565b602082019050919050565b6000602082019050818103600083015261157f81611543565b9050919050565b7f4e487b7100000000000000000000000000000000000000000000000000000000600052604160045260246000fd5b60006115c082610b8e565b91506115cb83610b8e565b92508282019050808211156115e3576115e2611400565b5b92915050565b6115f282610e15565b810181811067ffffffffffffffff8211171561161157611610611586565b5b80604052505050565b6000611624610b7a565b905061163082826115e9565b919050565b600067ffffffffffffffff8211156116505761164f611586565b5b602082029050602081019050919050565b600080fd5b600067ffffffffffffffff82111561168157611680611586565b5b61168a82610e15565b9050602081019050919050565b82818337600083830152505050565b60006116b96116b484611666565b61161a565b9050828152602081018484840111156116d5576116d4611661565b5b6116e0848285611697565b509392505050565b600082601f8301126116fd576116fc61104b565b5b813561170d8482602086016116a6565b91505092915050565b600061172961172484611635565b61161a565b9050808382526020820190506020840283018581111561174c5761174b611055565b5b835b8181101561179357803567ffffffffffffffff8111156117715761177061104b565b5b80860161177e89826116e8565b8552602085019450505060208101905061174e565b5050509392505050565b60006117aa368484611716565b905092915050565b60008190508160005260206000209050919050565b60006020601f8301049050919050565b600082821b905092915050565b6000600883026118147fffffffffffffffffffffffffffffffffffffffffffffffffffffffffffffffff826117d7565b61181e86836117d7565b95508019841693508086168417925050509392505050565b6000819050919050565b600061185b61185661185184610b8e565b611836565b610b8e565b9050919050565b6000819050919050565b61187583611840565b61188961188182611862565b8484546117e4565b825550505050565b600090565b61189e611891565b6118a981848461186c565b505050565b5b818110156118cd576118c2600082611896565b6001810190506118af565b5050565b601f821115611912576118e3816117b2565b6118ec846117c7565b810160208510156118fb578190505b61190f611907856117c7565b8301826118ae565b50505b505050565b600082821c905092915050565b600061193560001984600802611917565b1980831691505092915050565b600061194e8383611924565b9150826002028217905092915050565b61196782610dcf565b67ffffffffffffffff8111156119805761197f611586565b5b61198a8254611236565b6119958282856118d1565b600060209050601f8311600181146119c857600084156119b6578287015190505b6119c08582611942565b865550611a28565b601f1984166119d6866117b2565b60005b828110156119fe578489015182556001820191506020850194506020810190506119d9565b86831015611a1b5784890151611a17601f891682611924565b8355505b6001600288020188555050505b505050505050565b6000611a3c8385610dda565b9350611a49838584611697565b611a5283610e15565b840190509392505050565b6000819050919050565b6000611a738385610e8b565b9350611a80838584611697565b611a8983610e15565b840190509392505050565b6000611aa1848484611a67565b90509392505050565b600080fd5b600080fd5b600080fd5b60008083356001602003843603038112611ad657611ad5611ab4565b5b83810192508235915060208301925067ffffffffffffffff821115611afe57611afd611aaa565b5b600182023603831315611b1457611b13611aaf565b5b509250929050565b6000602082019050919050565b6000611b358385610e6a565b935083602084028501611b4784611a5d565b8060005b87811015611b8d578484038952611b628284611ab9565b611b6d868284611a94565b9550611b7884611b1c565b935060208b019a505050600181019050611b4b565b50829750879450505050509392505050565b600060a082019050611bb4600083018a610da5565b8181036020830152611bc781888a611a30565b90508181036040830152611bdc818688611b29565b9050611beb6060830185610da5565b611bf86080830184610f6b565b9897505050505050505056fea2646970667358221220378f1b4fafdd3ed6b8af42107d5ffae0e9585b5b15b1b66d3f128917f9a3f29f64736f6c634300081c0033",
  "linkReferences": {},
  "deployedLinkReferences": {}
}